:020000022000DC
:106000000000012079630200B963020039850200B3
:10601000BD630200BF630200C16302000000000014
:106020000000000000000000000000005D7702009A
:10603000C5630200000000007D770200C963020012
:10604000CB630200CB630200E1820200CB6302005B
:10605000CB630200CB630200CB630200CB63020080
:10606000CB630200CB630200CB630200CB63020070
:10607000CB630200CB630200CB630200CB63020060
:10608000CB630200B5740200CB630200CB63020055
:10609000CB630200CB630200CB630200CB63020040
:1060A000CB630200CB630200CB630200CB63020030
:1060B000CB630200CB630200000000000000000080
:1060C000CB630200CB630200CB630200CB63020010
:1060D000CB630200CB630200CB6302000000000030
:1060E00000000000000000000000000000000000B0
:1060F00000000000000000000000000000000000A0
:10610000000000000000000000000000000000008F
:10611000000000000000000000000000000000007F
:10612000000000000000000000000000000000006F
:10613000000000000000000000000000000000005F
:10614000000000000000000000000000000000004F
:10615000000000000000000000000000000000003F
:10616000000000000000000000000000000000002F
:10617000000000000000000000000000000000001F
:10618000000000000000000000000000000000000F
:1061900000000000000000000000000000000000FF
:1061A00000000000000000000000000000000000EF
:1061B00000000000000000000000000000000000DF
:1061C00000000000000000000000000000000000CF
:1061D00000000000000000000000000000000000BF
:1061E00000000000000000000000000000000000AF
:1061F000000000000000000000000000000000009F
:10620000F1EE103A43F08073E1EE103A704700BFB0
:1062100010B5054C237833B9044B13B10448AFF3E0
:1062200000800123237010BDFC3700200000000017
:1062300098E1020008B5034B1BB103490348AFF3D3
:10624000008008BD000000000038002098E1020036
:10625000154B002B08BF134B9D46A3F5803A002138
:106260008B460F461348144A121A03F093F90F4B4A
:10627000002B00D098470E4B002B00D098470020F1
:10628000002104000D000D48002802D00C48AFF397
:10629000008003F03DF92000290002F06FF803F0C0
:1062A00023F900BF000008000000012000000000EA
:1062B00000000000FC370020144300200000000014
:1062C0000000000010B50C4C0021112001F0BCFCB6
:1062D000607801F0CFFC0146112001F0B5FC607838
:1062E00001F0C8FC0A220146044801F069FDBDE83E
:1062F00010400A2000F06AB810360020B03B0020A1
:1063000038B501211120104C01F05CFC04F10D05A1
:106310002078012101F056FC14F8010B002101F056
:1063200093FCAC42F4D1094CA51D14F8010B0021DB
:1063300001F048FCAC42F8D1BDE8384004484FF4C5
:10634000E13101F00FBE00BF003600201036002002
:10635000B03B002008B50121112001F033FC1120D1
:1063600001F0A2FC1320012101F02CFCBDE8084043
:10637000132001F099BC00BF0A490B4A0B4B9B1A32
:1063800003DD043BC858D050FBDC094809494FF0F5
:10639000AD32026004300439FBD101F021FAFFF77D
:1063A00057FF0000A4E1020000360020FC37002067
:1063B00000F8002000080000FEE7FEE7FEE7FEE729
:1063C000FEE7FEE7FEE7FEE7FEE7FEE7034B80029F
:1063D000A3FB0030800900F02DBB00BFD34D62103D
:1063E0002DE9F041044601F04DF8344A344D13686C
:1063F000013313602B68002B30D0324E336833B337
:10640000E36A3148314907680A689F4238BF036030
:106410002F48013203EB83030A6000EB8300E26341
:10642000211D02F0DFF801F037F833686BB12A68FC
:10643000E36AD26A9A4208D2264B4FF080525A60E1
:1064400040BFBFF34F8FBFF36F8FBDE8F0812A6865
:10645000E36AD26A9A4298BF2C60D2E72C60136834
:10646000012B02D0E36A174ECBE71948DFF8908082
:10647000194F144E02F0A6F8184802F0A3F8184875
:1064800002F0A0F8174802F09DF8174802F09AF8B9
:10649000404602F097F8384602F094F8134802F0AC
:1064A00091F8134802F08EF8124802F08BF8124B64
:1064B000124AC2F800801F60E36AA2E78838002011
:1064C00018380020E83800209C3800209838002038
:1064D0002438002000ED00E0B438002038380020D7
:1064E0004C3800206038002074380020D438002058
:1064F00000390020EC380020203800201C38002013
:10650000A03800202DE9F843DDE909C4002C66D04D
:10651000BCF1000F60D00D4696009846022332462B
:1065200084F85130A5210746C4F830C0604603F016
:1065300031F82A7884F83420236B2978321F1A44E2
:1065400022F0070601B36B7884F835306B78DBB145
:10655000AB7884F83630AB78B3B1EB7884F8373069
:10656000EB788BB12B7984F838302B7963B16B7968
:1065700084F839306B793BB1AB7984F83A30AB7938
:1065800013B1EB7984F83B30089D042D28BF042516
:106590004FF00009E5626564201D84F83B90C4F863
:1065A000489002F01BF8C5F1050504F1180002F04F
:1065B00015F8C4F84C9042463946A561246184F828
:1065C00050906462304600F021FF20602046FFF7C3
:1065D00007FF2046BDE8F8836046BDE8F883204603
:1065E000BDE8F8832DE9F0479600804630460D4619
:1065F000994602F033F8002862D00746542002F092
:106600002DF8044600285FD000230763324684F843
:1066100051303846A52102F0BDFF2B7884F8343084
:106620002B78D4F830A003B36B7884F835306B78CE
:10663000DBB1AB7884F83630AB78B3B1EB7884F863
:106640003730EB788BB12B7984F838302B7963B104
:106650006B7984F839306B793BB1AB7984F83A3097
:10666000AB7913B1EB7984F83B30089D042D28BF3A
:1066700004250027E5626564201D84F83B70A7644B
:10668000043E01F0ABFFC5F1050504F118005644C6
:1066900001F0A4FFE764A56126F0070084F85070BC
:1066A000246164624A46414600F0B0FE099B2060C6
:1066B00003B11C602046FFF793FE0120BDE8F08780
:1066C0004FF0FF30BDE8F087384601F0D9FF4FF0BA
:1066D000FF30F3E770B584B0002503AA02A901A832
:1066E000CDE9015501F00AFF019C002C46D002982B
:1066F000002843D0039E20630223B6003246A52122
:1067000084F8513002F046FF206B1F4B6363043E58
:106710000644C4E91155201D84F8385084F83B50D4
:10672000E56201F05BFF04F1180001F057FF26F06D
:10673000070605231549A3612A46E564304624610E
:10674000646284F8505000F061FE20602046FFF73C
:1067500047FE0F4B1C6000F0FFFD012811D14023C4
:1067600083F311880B490C4A0C4B4FF0FF340C603B
:1067700010601D6000F060FE04B070BD044B00228C
:106780001A6004B070BD00BF49444C45B96A0200AC
:10679000C8380020CC380020E83800201439002008
:1067A000024A136801331360704700BF9438002019
:1067B000014B1868704700BF1439002008B134300D
:1067C0007047024B18683430704700BF18380020FB
:1067D000024A136818441060704700BF1439002043
:1067E0002DE9F04F404B1B6883B0002B46D13F4B47
:1067F0001E6801361E60002E4ED0DFF808B1DBF8AF
:106800000030B3425FD83A4F3B681D68002D65D019
:10681000DFF8F480DFF8F4A0DFF8F490002522E040
:10682000019101F007FFA36A019904F1180013B167
:1068300001F000FF0199E36AD8F8002003EB830020
:1068400093420AEB800088BFC8F8003001F0CAFE0E
:10685000D9F800203B68E16AD26A1B68914228BFE0
:106860000125002B3AD03B68DB68DC686368211D9A
:106870009E420846D4D2CBF8003004E01D4A13688B
:106880000133136000251C4B1B68002B0CBF2846EE
:10689000012003B0BDE8F08F154B184A186818495D
:1068A00014681C6010600A6801320A601A68126875
:1068B0005AB9DFF850B04FF0FF33CBF80030DBF8B7
:1068C0000030B3429FD90025DDE71B68DFF834B004
:1068D000DB68DB685B68CBF8003090E74FF0FF3394
:1068E000CBF80030CFE700BF9438002014390020E7
:1068F0001C38002090380020183900202038002053
:10690000D0380020CC3800209C38002024380020CB
:10691000183800202DE9F04F83B000F0B3FD3A4B5A
:106920001A68013A1A601B68002B55D1374B1B6857
:10693000002B51D0364D2B68002B62D0354EDFF83E
:10694000EC80354FDFF8E8904FF0010AEB68DC6827
:1069500004F1040B04F1180001F06CFE584601F03C
:1069600069FEE36A326803EB83009342594608EB01
:10697000800088BF336001F035FE3B68E26ADB6A65
:106980009A4231D3C9F800A02B68002BDED1234BEB
:106990001A681268002A2FD01A68214BD268D26870
:1069A00052681A601F4E346844B10125FFF718FF82
:1069B00008B1C9F80050013CF8D13460D9F8003072
:1069C00053B1194B4FF080525A6040BFBFF34F8F05
:1069D000BFF36F8F012000E00020019000F05CFD0C
:1069E000019803B0BDE8F08F2B68002BAED10B4BA4
:1069F0001A681268002ACFD1094B4FF0FF321A6093
:106A0000D0E7DFF82C90CDE79438002088380020BC
:106A1000D43800209C380020183800201C38002072
:106A2000CC3800209038002000ED00E02438002011
:106A30001839002070B548B9184B4FF080525A6091
:106A400040BFBFF34F8FBFF36F8F70BD144A15491E
:106A50001368154D013313600E680446286804302E
:106A600001F0E8FD2B68A4195C600FD20F4B186889
:106A70002968043101F0C6FD0D4B1A68944238BFF5
:106A80001C60FFF747FF0028D6D070BD094B18687F
:106A90002968043101F0B6FDF3E700BF00ED00E026
:106AA0009438002014390020183800201C380020A9
:106AB000CC380020203800202DE9F84F3A4CDFF880
:106AC00004913A4D3A4EDFF800813A4FDFF8FCB0BE
:106AD0002368EBB100F0D6FCD9F80C30D3F80CA049
:106AE0000AF1040001F0A6FD2B68013B2B6023682E
:106AF000013B236000F0D0FC9AF85130002B34D0D9
:106B0000012BE5D1504601F0BBFD2368002BE1D1FC
:106B10003368012B08D94FF08053CBF8043040BFC5
:106B2000BFF34F8FBFF36F8F00F058FED8F80030DF
:106B30001BBB3B68DB6A002BCAD13368012BC7D86B
:106B40001D4B1E4A1B6812689B1A012BC0D91C4A98
:106B5000136801331360D8F80030A3B13B68DB6AD7
:106B600003B93368FFF7D6FEB2E7DAF8300001F078
:106B700087FD504601F084FDAAE73B68DB6A002BE5
:106B8000A6D13368A4E73B68DB6A002BEAD13368FF
:106B9000012BE7D8084B1868084B1B68C01A01285E
:106BA000E0D900F0E9FCDDE78C38002088380020CF
:106BB0002438002018380020CC3800201439002058
:106BC00094380020003900209C38002000ED00E0BF
:106BD000294B1B681BB1294B01221A607047274AB9
:106BE00070B5274C13602268236812681B6B9A42A9
:106BF0003CD9244D244B2A6802EB8200800091008E
:106C0000185808BB501E00EB8006B60081009E5944
:106C100056BB901E00EB8006B60081009E591EBB3D
:106C2000D01E00EB8006B60081009E59E6B9101F09
:106C300000EB8006B60081009E59AEB9053A02EB22
:106C40008200800091001858114403EB8100034634
:106C50004168496841600833994204BF496841600E
:106C6000CB6823602A6070BD0246EDE7206821688A
:106C7000343101F001FCBCE79438002018390020C1
:106C8000183800209C3800202438002070B5174D9B
:106C90002B680C4603F1180101F0B4FC144B1E687C
:106CA0002868043001F0C6FC631C17D02B68A419B7
:106CB0005C6007D30F4B18682968BDE87040043149
:106CC00001F0A0BC0C4B18682968043101F09AFC53
:106CD0000A4B1A68944238BF1C6070BD2968084886
:106CE000BDE87040043101F07DBC00BF18380020C1
:106CF00014390020203800201C380020CC38002017
:106D0000EC38002070B5194D2B6816460C4603F17F
:106D1000180101F067FC164B5EB11B68286804304F
:106D200001F088FC29681348BDE87040043101F087
:106D300059BC1E682868043001F07CFC2B68A4193B
:106D40005C6007D30C4B18682968BDE870400431BB
:106D500001F058BC094B18682968043101F052FC55
:106D6000074B1A68944238BF1C6070BD1838002069
:106D700014390020EC380020203800201C38002076
:106D8000CC38002030B5C368DC6804F1180583B046
:106D9000284601F04FFC1C4B1B683BBB211D0846DD
:106DA000019101F047FC194AE36A10680199834296
:106DB000174888BF136003EB830300EB830001F0E7
:106DC00011FC144BE26A1B68DB6A9A4282BF124BC9
:106DD00001201860114B1A68126898BF002052B940
:106DE0000F4B4FF0FF321A6003B030BD0D482946FB
:106DF00001F0F8FBE5E71A68094BD268D2685268DF
:106E00001A6003B030BD00BF943800209C380020C9
:106E10002438002018380020183900201C380020A1
:106E2000CC380020D4380020034A044B12681B6879
:106E3000C0E90023704700BFD0380020143900207B
:106E4000F0B50D4683B0044600F01CFB2B68144AD5
:106E5000591C10681DD0DFF84CC0D4E90061DCF883
:106E60000070BE4208D0814206D80120019000F097
:106E700013FB019803B0F0BD471ABB420BD91B1A94
:106E80000B44DCF8001012682B600020C4E90012EB
:106E9000ECE70020EAE700232B600120E6E700BFD3
:106EA00014390020D0380020014B01221A607047AD
:106EB00018390020094B186818B9094B1B6813B121
:106EC000704700207047074A074B10681B68013B5A
:106ED000984214BF01200220704700BFD438002020
:106EE00018390020EC38002088380020014B186841
:106EF000704700BF18380020054B1B6833B1054BA5
:106F00001B68002B0CBF0220002070470120704737
:106F1000E83800209438002070B5044682B0C8B12B
:106F20001D4DC36A2A68D26A934215D28269002A2B
:106F300004DB2A68D26AC2F105028261174E6269D7
:106F400003EB830306EB83039A420ED02B68DB6AC4
:106F5000E362012002B070BD2B68406CDC6AA04285
:106F60002CBF0020012002B070BD211D08460191F8
:106F700001F060FB2A680A4BD06A1A680199E06246
:106F8000904200D9186000EB800006EB800001F011
:106F900029FB0120DEE700BF18380020243800203C
:106FA0009C38002068B130B5836CC16A426C013BEB
:106FB000914283B00446836400D023B1002003B023
:106FC00030BD00207047011D0846019101F032FBE1
:106FD0000A4A636C1068E3628342094888BF136001
:106FE000C3F1050503EB830300EB83000199A56161
:106FF00001F0F8FA012003B030BD00BF9C3800203A
:107000002438002070B130B5426CC36A914238BF59
:1070100011468B4283B0044602D0826C012A02D012
:1070200003B030BD70478269114DC162002A03EB85
:1070300083034269A8BFC1F1050105EB8303A8BF23
:1070400081619A42ECD1011D0846019101F0F2FAEA
:10705000084BE06A1A680199904288BF186000EBFB
:10706000800005EB800003B0BDE8304001F0BABA03
:10707000243800209C380020044B1A681AB1196883
:107080008A6C01328A641868704700BF1838002083
:107090002DE9F0431D4EDFF87C9085B04FF00008DD
:1070A0000CE0DB68DC681F68251D284601F0C2FA89
:1070B000636A20469847E369012B0AD033681A684F
:1070C000002AEED1124A11683160136005B0BDE8A4
:1070D000F083A3693B449F42294610D3D9F800307E
:1070E000002BEBD0CDE900870294FFF705FF0023CA
:1070F000D9F800001A46694601F042FBDEE7306825
:107100006360246101F07EFAD8E700BF1C390020DB
:1071100020390020A03B00202DE9F04F894E8A4CF9
:10712000DFF82C82894DDFF82CA28BB03368D3F8BE
:1071300000B0BBF1000F00F0A980DB68D3F800B00D
:10714000FFF72EFBFFF734FB22688242814600F2F4
:10715000AE808345206040F2BF8000222868ABEB00
:10716000090102F033F8FFF7D5FB40B94FF0805327
:10717000CAF8043040BFBFF34F8FBFF36F8F28684A
:10718000002202A901F014FD0028CFD0029B002BA1
:1071900073DBDDF81090D9F814301BB109F104004D
:1071A00001F048FAFFF704FB236898420746C0F055
:1071B0008580029B2760092BE1D801A252F823F0B9
:1071C000E9710200E9710200E97102007F710200B9
:1071D000437202006B720200E9710200E971020061
:1071E0007F710200437202000398D9F81830C9F881
:1071F0001090C2182CBF01210021BA42C9F8042006
:107200005FD8381A834228D8D9F82430484698479E
:10721000D9F81C302868012BB2D10028B0D0D9F899
:107220001820039B00211344CDE907390691FFF78D
:1072300063FE002328681A4606A901F0A1FA28680F
:107240009EE7039BC9F81090DA19BA42C9F81830C2
:10725000C9F8042039D8002B91D0D8F8000009F1E2
:10726000040101F0CFF928688AE799F82C30002B47
:1072700085D1484601F004FA81E7039BDDE904016A
:107280009847029B002BFFF67AAF82E7FFF788FA58
:10729000FFF78EFA22689042814608D3D8F8002082
:1072A000C4F800901268B2FA82F2520956E7FFF76A
:1072B000EFFEC4F80090FFF72DFB60E7FFF7E8FE54
:1072C00077E7B84201D900299ED0306809F104015E
:1072D00001F098F9286853E7FFF71CFB3268D26881
:1072E000D768391D0846019101F0A4F9F8690199A0
:1072F000012803D07B6A3846984740E7BA693F6166
:107300000BEB02004845786003D9306801F07AF948
:10731000F0E7A9EB0B039A420FD82B68002BE9D0BA
:107320000023CDE9063B0897FFF7E6FD0023286818
:107330001A4606A901F024FADCE7D8F8000001F0AB
:1073400061F9D7E71C3900204C3B0020A03B00200E
:107350002039002000ED00E0F0B51F4C89B000F0AE
:1073600091F82568F5B100F097F82068C0B10024C5
:1073700007AA06A905A8CDE9054401F0CDF8DDE985
:1073800005310222CDE900210293079A13491448DE
:107390002346FFF7B7F8134B1860001B18BF0120F6
:1073A00009B0F0BD104F114E384601F00BF93046D0
:1073B00001F008F90E4A0F4900950F4B17600E6057
:1073C0000E4A1021202001F069F920600028CAD05F
:1073D0000B4901F0E9FEC6E7A03B00207CCD02008E
:1073E00019710200A43B0020243B0020383B002000
:1073F0001C39002020390020503B00202439002077
:1074000074CD0200402383F31188FEE730B46FF09F
:107410000203084C40F80C4C4FF0807540F8045CB7
:1074200040F8081C40F8202C40F8243C30BC44387C
:10743000704700BF057402000F4C08B5E02384F8C4
:10744000223000F07BF80D4B0D4A00211960D4F872
:10745000883043F47003C4F88830536843F04043E5
:107460005360236943F01003236100F065F9402362
:1074700083F31188FEE700BF00ED00E0A83B002089
:1074800030EF00E0402383F31188024A1368013390
:1074900013607047A83B0020034A1368013B136048
:1074A0000BB983F311887047A83B002041DF704778
:1074B00012DF704770B51D4B00221A6082B01B6846
:1074C0000193019BEFF31186402383F31188184940
:1074D000184BD1F804451A601B680093009BFFF716
:1074E00067F9201A20F07F4323F0010320F07F4545
:1074F0009BB96C1E6DB10025FFF772F9013C631C4E
:1075000045EA0005F8D125B10B4B4FF080525A6087
:1075100040BF86F3118802B070BDFFF7EDFC022872
:10752000E7D0FFF75DF90546EDE700BF40110140E8
:10753000001001400011014000ED00E00B4B0C4930
:1075400030B41F200B4DC3F8080501220224E020AF
:10755000C3F804232A601A60C3F8444381F8110376
:107560004FF400330B6030BC704700BF0010014087
:1075700000E100E0081001402DE9F041054684B02B
:10758000EFF3108272B6614CA36883B9604B614817
:107590000121A160D3F8801001402160C3F8800070
:1075A000D3F8841061604FF0FF31C3F8841002B942
:1075B00062B6594ED6F80485FFF77CFC78B3574F76
:1075C000574AAF4228BF2F4608EB070323F07F43FB
:1075D00001214FF0000CC6F80813C6F84035C2F878
:1075E00000C0136801934FF480330198C6F8043348
:1075F000BFF34F8F25BBC6F8083315601268494B9F
:107600000392039A1D601B680293414B029AC6F8CD
:1076100004134FF40032D6F80415C3F88021A36890
:107620005BB1EFF3108272B6394B21681960616863
:1076300059600023A36002B962B604B0BDE8F081CE
:10764000F1EE103A23F09F03E1EE103AF1EE103A1A
:107650002F4D4023C5F8843103A88DF80CC0FFF7E7
:1076600027FF9DF80C30002B4DD12B4620BFD3F8BF
:107670000011D3F804210A43F8D0274B2848294A9F
:107680004FF48031C3F808130021016000680390B3
:10769000039811601268029201220299C3F8042330
:1076A000D3F804351A4AA3EB080323F07F45BD4203
:1076B00028BF3D464FF40033012DC2F8803120D958
:1076C000681EFFF785F8184BDB68DA010FD5174AFB
:1076D0001368DB070BD5164B516803FB05F5A5F5C1
:1076E0007425A5F51075AD0A01EB85155560FFF7FA
:1076F00077F8002893D00F4B4FF080525A6040BF6C
:107700008DE7F4D08BE7FFF7D1FEB6E7E842002023
:1077100000E100E0FC06FFBD00100140FDFFFF009E
:107720004011014000110140F0ED00E0001000E0C8
:1077300040420F0000ED00E00748006880F3088831
:1077400062B661B6BFF34F8FBFF36F8F4FF0E000AB
:1077500080F3118800DF00BF00600200064B19684B
:107760000868B0E8F04F80F30988BFF36F8F4FF0DF
:10777000000080F31188704718380020EFF309806B
:10778000BFF36F8F144B1A681EF0100F08BF20ED67
:10779000108A20E9F04F10604DF8043D4FF0400092
:1077A00080F31188BFF34F8FBFF36F8FFFF710FA8D
:1077B0004FF0000080F3118808BC19680868B0E831
:1077C000F04F1EF0100F08BFB0EC108A80F309884C
:1077D000BFF36F8F704700BF18380020704700BF9D
:1077E000914B1B6830B45D1C00F0F5808F4A126825
:1077F000062B00F0E5808E4B1B78062B00F0CF8027
:10780000894B1B685C1C00F0C380884A1268062BF9
:1078100000F0B380864B1B78062B00F09B80824BD8
:107820001B68581C00F08F80804A1268062B7CD0A1
:107830007F4B1B78062B5AD07B4B1B68591C1ED0E4
:107840007A4A062B11680FD07A4AD2F8883043F46E
:107850007003C2F88830BFF34F8FBFF36F8F764B42
:10786000764A1A6030BC7047CA1E032A40F2128161
:107870000339032940F2B6806C4B1B68C2E06C49A7
:107880006F4A097812680629C2F30312DCD1033A61
:10789000032A40F2FF80664A694B12781B68062A69
:1078A000C3F30313D0D1033B032B40F29B80604A08
:1078B000634B12781B68062AC3F3031308BF4FF00B
:1078C000FF32C1D1033B032B40F2A280574B1B6810
:1078D000062AB9D1033B032BB6D85A4AD35C002BF6
:1078E000B2D0594A136843F480631360ACE7544B39
:1078F0001B68C3F30313033B032B9DD8534AD25C8D
:1079000012B1534A03211160524AD35C002B93D029
:10791000514A524C5249534B05201060012500201A
:107920003F22256008601A6086E7033A032A3FF683
:107930007FAF4FF080430022C3F80C21C3F8102121
:10794000C3F8382574E73E4A394B12681B78C2F3F6
:1079500003126BE73A4B1B68C3F30313033B032B80
:107960003FF65DAF404AD35C002B3FF458AF3F4A2F
:10797000D36823F08073D36051E7033A032A3FF6BC
:1079800049AF3B4B3B4A1B68C3F34233136041E7AB
:107990002B4A274B12681B78C2F3031237E7284B98
:1079A0001B68C3F30313033B032B3FF629AF324A93
:1079B000D35C002B3FF424AF304B314A1A601FE7F1
:1079C000033A032A3FF617AF2E4B2F4A1B68C3F327
:1079D000042313600FE71A4A154B12681B78C2F391
:1079E000031205E7294B104A1B681268284903F067
:1079F0004F030B60531C3FF45AAF0C4B062A1B6815
:107A00007FF422AF033B032B4FF006023FF65EAF3D
:107A10004FF08041D1F8003413F0010F034B40F0D8
:107A200093801B6854E700BF300100103401001040
:107A3000E00F00F000ED00E0183600200090D003C9
:107A4000E80F00F088CD02003C1700408CCD02000A
:107A5000A00500408CCD0200105600408856004022
:107A600018560040145600408CCD0200F0ED00E0A6
:107A7000440200103C0500408CCD020074C0074059
:107A80000DF0ADBA2403001040350140580200103B
:107A9000E40E004030498A5C002A48D04FF0805301
:107AA0002E4AD3F80414C2F82015D3F80814C2F8EB
:107AB0002415D3F80C14C2F82815D3F81014C2F802
:107AC0002C15D3F81414C2F83015D3F81814C2F8D2
:107AD0003415D3F81C14C2F84015D3F82014C2F89A
:107AE0004415D3F82414C2F84815D3F82814C2F862
:107AF0004C15D3F82C14C2F85015D3F83014C2F832
:107B00005415D3F83414C2F86015D3F83814C2F8F9
:107B10006415D3F83C14C2F86815D3F84014104823
:107B2000C2F86C15D3F844140368C2F870155A1CD7
:107B30003FF4B1AE0B4A062B11687FF485AE0339D2
:107B400003293FF699AE4DE7054A1B6812686FF0AE
:107B50000100C1F80004BBE684CD020000C0004073
:107B60003001001034010010134A144BD2F84025A4
:107B7000134910B41A604FF0804301224FF40030D3
:107B8000C3F818259A60C1F88000BFF34F8FBFF388
:107B90006F8F4FF0A04003F588334FF480314FF0E2
:107BA000FF34C3F84813C3F808135A609A60C0F84A
:107BB00008455DF8044B704700A00040AC3B002036
:107BC00000E100E01F2810D81C4B53F82030052995
:107BD0000BD8DFE801F013031B232B0B03F5E07335
:107BE0004FF0A042032142F82310704703F5E073E1
:107BF0004FF0A042124942F82310704703F5E0739A
:107C00004FF0A042002142F82310704703F5E073C3
:107C10004FF0A0420C2142F82310704703F5E073A7
:107C20004FF0A042042142F82310704703F5E0739F
:107C30004FF0A042034942F823107047F4CC0200F1
:107C4000040002000C0003001F2809D8084B53F859
:107C50002020012329B14FF0A0419340C1F80835FD
:107C600070474FF0A0419340C1F80C35704700BFFA
:107C7000F4CC02001F2813D80A4B4FF0A04253F84F
:107C80002000D2F81415012383400B4214BFD2F810
:107C90000425D2F81025134214BF0120002070479C
:107CA00000207047F4CC02001F2808D8044B53F87A
:107CB00020104FF0A04201238B40C2F80C357047D2
:107CC000F4CC020000207047F8B5174682B1054693
:107CD0000E46002402E00134A74207D02B6816F8B4
:107CE000011B1B68284698470028F4D12046F8BDA0
:107CF0001446FBE72DE9F0418AB000230546012A2E
:107D000098BF0A228DF8243009ACB1FBF2F602FBD1
:107D10001610C3B209280F4603F130008ABF37336B
:107D2000C3B2DBB2BA4204F8013D3146EDD92F6847
:107D3000204602F01FFA7B680F4A9342804612D118
:107D400068B1002603E00136B04508D02F683B68D3
:107D500014F8011B284698470028F4D1B046404645
:107D60000AB0BDE8F0810246214628469847804681
:107D700040460AB0BDE8F081C97C020070B50646F5
:107D80000D462AB90368BDE870401B68C9B21847A0
:107D90000A2A14460ED100290DDA03682D211B682A
:107DA000984722460346694230461C46FFF7A2FF29
:107DB000204470BDD2B2BDE87040FFF79BBF00BF4A
:107DC00070B50446FFF7DAFF23680E4A5E689642F4
:107DD00005460DD11B680D212046984730B1236818
:107DE00020461B680A21984748B10235284670BDD5
:107DF000054920460222B0470544284670BD01359A
:107E0000F4E700BFC97C020090CD020090F8A30007
:107E1000704700BF38B590F99D30002B04460DDB4C
:107E20005A0917482032012103F01F0301FA03F316
:107E300040F82230BFF34F8FBFF36F8F23694FF0AD
:107E4000FF32012100254FF48870C3F80803596000
:107E500004F11400D960C3F80055C3F80C25C3F829
:107E60001425C3F80825C3F8102501F01DFBD4F82C
:107E7000A40001F075F9C4F8A45084F8A35038BDEB
:107E800000E100E0143001F021BB00BF143001F02C
:107E900023BB00BF143001F00BBB00BF90F8A33030
:107EA00003B9704710B54FF0FF310446D0F8A40075
:107EB00000F0DAFF0023D4F8A4001A46BDE8104011
:107EC000194600F05DBC00BF10B503680F4A5B683F
:107ED00082B093428DF8071012D104464FF0FF3163
:107EE000D0F8A40000F0C0FF9DF8073084F85D30A2
:107EF000226901231846C2F84835936002B010BDCC
:107F000001220DF10701984702B010BD117F020058
:107F10002DE9F04716460AB30746884600F15D0A88
:107F200000254FF00109741B402C28BF40244FF05E
:107F3000FF31D7F8A40000F097FF08EB05012246B7
:107F4000504601F019FB25443B69AE42C3F8484551
:107F5000C3F80890E7D82846BDE8F08715462846BC
:107F6000BDE8F087036870B51B6A634DAB4240F013
:107F700093800A4690F8A3100446002940F08480BC
:107F8000036990F89F00C3F80C0594F89E00C3F8AD
:107F9000140594F8A200012800F08280C3F86C1543
:107FA000B2F5966F31D9B2F5166F40F28480B2F512
:107FB000965F40F28380B2F5165F40F28180B2F5A1
:107FC000615F7FD9B2F5964F7ED9B2F5E14F7DD989
:107FD000B2F5164F7CD9B2F5614F7CD9B2F5963F18
:107FE0007CD9B2F5E13F7BD9B2F5613F7BD94349FA
:107FF0008A427BD9B2F5E12F7BD9B2F5612F94BFCC
:108000004FF070614FF0805101E04FF49E2194F9E0
:108010009D20C3F82415082004F15D010025C3F854
:108020000005002AC3F8441504F15C00C3F8205190
:108030004FF001014FF48875C3F83405C3F83815C3
:108040001960C3F8045320DB2D48530902F01F05C3
:1080500060330244A940602540F8231082F80053A1
:1080600094F99D30002B07DB254903F01F00012206
:108070005B09824041F82320012000F031FD0123FB
:10808000C4F8A40084F8A33070BD1E4B02F00F02A8
:10809000134460221A76E3E7BDE8704000221847D7
:1080A00094F8A010C3F8101594F8A110C3F808159F
:1080B000C3F86C0574E74FF41D21A8E71249A6E741
:1080C0001249A4E71249A2E71249A0E712499EE724
:1080D0004FF41D019BE74FF46B0198E70F4996E7BA
:1080E0004FF0EB7193E74FF06C7190E74FF08061C8
:1080F0008DE74FF0E8618AE72181020090D003000C
:1081000000E100E0FCEC00E000B0130000502700AC
:1081100000F03A0000A04E0000C0750000903A0147
:1081200038B590F8A330002B40F0818003690446F5
:1081300090F89F00C3F80C0594F89E00C3F814054E
:1081400094F8A200012873D0C3F86C25B1F5966F9E
:108150002ED9B1F5166F7FD9B1F5965F7FD9B1F5FC
:10816000165F7ED9B1F5615F7DD9B1F5964F7CD9A7
:10817000B1F5E14F7BD9B1F5164F7AD9B1F5614F21
:108180007AD9B1F5963F7AD9B1F5E13F79D9B1F510
:10819000613F79D9414A914279D9B1F5E12F79D935
:1081A000B1F5612F94BF4FF070614FF0805101E045
:1081B0004FF49E2194F99D20C3F82415082004F162
:1081C0005D010025C3F80005002AC3F8441504F139
:1081D0005C00C3F820514FF001014FF48875C3F8DB
:1081E0003405C3F838151960C3F804532DDB2C4847
:1081F000530902F01F0560330244A940602540F88E
:10820000231082F8005394F99D30002B07DB24499A
:1082100003F01F0001225B09824041F82320012066
:1082200000F05EFC0123C4F8A40084F8A33038BD3C
:1082300094F8A000C3F8100594F8A100C3F808054D
:1082400042F00102C3F86C2580E7164B02F00F02E2
:10825000134460221A76D6E74FF41D21AAE712498B
:10826000A8E71249A6E71249A4E71249A2E7124972
:10827000A0E74FF41D019DE74FF46B019AE70F490A
:1082800098E74FF0EB7195E74FF06C7192E74FF084
:1082900080618FE74FF0E8618CE700BF90D003006A
:1082A00000E100E0FCEC00E000B01300005027000B
:1082B00000F03A0000A04E0000C0750000903A01A6
:1082C00008B5054B1BB1054801F000F900B908BD20
:1082D000AFF3008008BD00BF00000000C43B0020D9
:1082E00010B5114C2369D3F810213AB10022C3F81C
:1082F0001021D3F83C2572B901221A60D3F820214D
:1083000002B910BD0021D4F8A400C3F82011BDE8C3
:10831000104000F01DBC94F85C1004F1140001F052
:10832000B5F82369E8E700BFB03B002038B50E4C34
:108330000E4A20464FF47A73002540F8142BC4E906
:10834000015301F097F80A4B0A481A6A9B6984F8AE
:108350009F300221A4F8A250C4F8A450206184F8F0
:108360009D1084F89E2038BDB03B00209CCD0200BB
:10837000F4CC020000200040704700BF00B583B07D
:10838000FFF7F2FBFDF7E6FF0E4B019301230E49C9
:1083900000934FF4806200230C48FEF723F94FF45A
:1083A000407000F0DBFFFEF795F9BFF34F8F0849EF
:1083B000084BCA6802F4E0621343CB60BFF34F8FEF
:1083C00000BFFDE7583C0020C8CD0200D983020061
:1083D00000ED00E00400FA05194808B590F8A33054
:1083E00043B3FDF78DFF00F0B9F8FFF7C5FF154B5C
:1083F000BBB1154B63B1FDF765FF00F031F8FFF736
:108400005FFFFDF75FFF00F02BF8FFF759FFF2E782
:10841000FDF758FF00F024F8FDF754FF00F020F8B6
:10842000F6E7FDF74FFF00F01BF8FDF74BFF00F0FC
:1084300017F8F6E74FF4E131FFF794FDD1E700BFFD
:10844000B03B002000000000C1820200034B93F803
:10845000A30000B970471846FFF75ABDB03B002093
:10846000044B4FF080525A6040BFBFF34F8FBFF3B1
:108470006F8F704700ED00E008B50C460A480B49C5
:1084800001F0A4FD21460A4801F0A0FD0A2001F0F8
:10849000B5FD084A4FF08053536040BFBFF34F8F84
:1084A000BFF36F8FF8E700BFD8CD0200D0CD020038
:1084B000E0CD020000ED00E008B50C490C4801F0E9
:1084C00085FDFEF713FDFEF779F90146094801F035
:1084D0007DFD0A2001F092FD074A4FF08053536062
:1084E00040BFBFF34F8FBFF36F8FF8E7D0CD0200CF
:1084F000D8CD0200FCCD020000ED00E0044B03608B
:1085000010B46423034C0C605DF8044B1360704797
:108510005C3C0020B03C0020054B036010B44FF4DD
:108520008073044C0C605DF8044B1360704700BF0F
:10853000403E0020943E0020BFF34F8F0549064B7C
:10854000CA6802F4E0621343CB60BFF34F8F00BFF1
:10855000FDE700BF00ED00E00400FA0508B50A20C1
:1085600001F04CFD094801F0CDFD00F02FFF014660
:10857000074801F02BFD00F069FF0146054801F0B6
:1085800025FDBDE808400A2001F038BD18CE0200E4
:1085900030CE020044CE020010B501460446064823
:1085A00000F000FF00B110BD04490548224601F06B
:1085B000C1FD034810BD00BFF4DC020058CE02002C
:1085C0009442002000F108034FF0FF310022C0E97F
:1085D0000333816002604360704700BF0023036182
:1085E000704700BF4368026810B49C688C609C6848
:1085F0004B600132616099605DF8044B0861026074
:10860000704700BF30B40D686B1C10D000F1080338
:108610001C465B681A68AA42FAD902684B600132AC
:1086200099608C606160086130BC026070470469C9
:108630006368F2E7036910B4D0E901125C688A60EC
:108640008442516008BF5A601A685DF8044B0021EB
:10865000013A01611A601868704700BF10B582B016
:108660000190FEF79DF8019800F076FF0446FEF7B2
:1086700051F914B1204602B010BDFFF71DFFF9E714
:1086800050B110B50446FEF78BF8204600F06CFFA1
:10869000BDE81040FEF73EB9704700BF38B51C4634
:1086A0009DF8105043B3002908BF1A460123C4E9BE
:1086B0000F01226084F84630FEF7E4FED4E90F1380
:1086C0002268A26001FB03F1CB1A134400200A4484
:1086D000FF21A063E36084F84410626084F84510D1
:1086E00004F11000FFF76EFF04F12400FFF76AFFAA
:1086F000FEF7D2FE84F84C50204638BDF8B5064649
:1087000017460D4669B100FB01F05030FFF7A6FF98
:10871000044690B3002200F1500380F84620036025
:1087200007E05020FFF79AFF044630B384F8465024
:108730002460C4E90F65FEF7A5FED4E90F13226893
:10874000A26001FB03F1CB1A134400200A44FF216D
:10875000A063E36084F84410626084F8451004F17B
:108760001000FFF72FFF04F12400FFF72BFFFEF7A7
:1087700093FE84F84C702046F8BD00242046F8BDD6
:108780002DE9F047044684B01F460192884600F167
:108790002406FEF777FEA26BE36BDFF840939A4264
:1087A0004FF0000A7CD3022F00F0E880019D002DDD
:1087B00000F0128102ADBAF1000F00F0DB80FEF78D
:1087C0006BFEFDF7EDFFFEF75DFE94F84430FF2BE6
:1087D00004BF002384F8443094F84530FF2B04BFD5
:1087E000002384F84530FEF757FE284601A9FEF71E
:1087F00027FB002840F0F680FEF744FEA26BE36BF7
:108800009A4261D0FEF748FEFEF73CFE94F84550D0
:108810006DB2002D05DC12E06B1E13F0FF0F5DB290
:108820000DD0636A304653B1FEF7ACFA0028F3D09E
:10883000FEF73AFB6B1E13F0FF0F5DB2F1D1FF2381
:1088400084F84530FEF728FEFEF71CFE94F84450ED
:108850006DB2002D15DD04F1100A04E06B1E13F05B
:10886000FF0F5DB20DD02369504653B1FEF78AFA6F
:108870000028F3D0FEF718FB6B1E13F0FF0F5DB25C
:10888000F1D1FF2384F84430FEF706FEFEF742F8EC
:10889000FEF7F8FDA26BE36B9A424FF0010A82D219
:1088A000226CA56B002A40F0E7802668002E00F0BD
:1088B000F9800135A563636A002B7CD1FEF7ECFDDE
:1088C000012004B0BDE8F08704F1100AFEF7E4FDD2
:1088D00001995046FEF7DAF9FEF7D4FD94F84550B9
:1088E0006DB2002D05DC12E06B1E13F0FF0F5DB2C0
:1088F0000DD0636A304653B1FEF744FA0028F3D036
:10890000FEF7D2FA6B1E13F0FF0F5DB2F1D1FF2319
:1089100084F84530FEF7C0FDFEF7B4FD94F84450EE
:108920006DB2002D05DC12E06B1E13F0FF0F5DB27F
:108930000DD02369504653B1FEF724FA0028F3D036
:10894000FEF7B2FA6B1E13F0FF0F5DB2F1D1FF23F9
:1089500084F84430FEF7A0FDFDF7DCFF002897D136
:108960004FF08053C9F8043040BFBFF34F8FBFF3BF
:108970006F8F8DE72846FEF757FA20E7226CA56B2C
:10898000002A92D04146E06800F0F6FD226CE368D0
:1089900021689B1A8B42E360C2F1000204D2636833
:1089A0001A44E260022F84D1002D83D10123A363F6
:1089B000636A002B82D004F12400FEF7E3F900285B
:1089C0003FF47CAF454B4FF080525A6040BFBFF33D
:1089D0004F8FBFF36F8F71E7FEF75EFD284604B03F
:1089E000BDE8F087FEF74EFD94F845506DB2002DBE
:1089F00015DD04F1240604E06B1E13F0FF0F5DB2D9
:108A00000DD0636A304653B1FEF7BCF90028F3D0AD
:108A1000FEF74AFA6B1E13F0FF0F5DB2F1D1FF2390
:108A200084F84530FEF738FDFEF72CFD94F84450ED
:108A30006DB2002D15DD04F1100604E06B1E13F07D
:108A4000FF0F5DB20DD02369304653B1FEF79AF99E
:108A50000028F3D0FEF728FA6B1E13F0FF0F5DB26B
:108A6000F1D1FF2384F84430FEF716FDFDF752FFE5
:108A7000002004B0BDE8F087414607BBA06800F0C5
:108A80007BFDA368216C62680B449342A360FFF4F2
:108A900010AF0135A563636A2268A260002B3FF422
:108AA0000DAF88E760680135FEF77CFAA563636A5D
:108AB0006660002B7FF47FAF002883D1FEE6E0687C
:108AC00000F05AFD226CE36821689B1A8B42E36038
:108AD000C2F10002BFF466AF61E700BF00ED00E045
:108AE000F8B506465020FFF7B9FD044670B30025DF
:108AF00001232060C0E90F3580F84650FEF7C2FC24
:108B0000D4E90F322168A56303FB02F39A1A0A44E1
:108B10000B44FF27C4E90131E26084F8447004F19A
:108B2000100084F84570FFF74DFD04F12400FFF7B5
:108B300049FDFEF7B1FCC4E90055E56084F84C60DE
:108B40002B462A4629462046FFF71AFE2046F8BD46
:108B500010B582B0EFF31184402383F31188836B47
:108B6000C26B9A420FD990F845200133FF2A8363E4
:108B700053B20DD001335BB280F84530012084F34D
:108B8000118802B010BD002084F3118802B010BD1E
:108B9000436A002BF2D024300191FEF7F3F800284D
:108BA000ECD001990029E9D001200860ECE700BF72
:108BB0002DE9F043044685B00F460192FEF762FCB2
:108BC000A56B002D40F02781019B002B00F0D28087
:108BD00002A8FEF729F9DFF88C8204F12406FEF7DB
:108BE0005BFCFDF7DDFDFEF74DFC94F84430FF2BF8
:108BF00004BF002384F8443094F84530FF2B04BFB1
:108C0000002384F84530FEF747FC01A902A8FEF7CF
:108C100017F900285BD1FEF735FCA36B002B40F061
:108C2000AF80FEF739FC01993046FEF72FF8FEF7CA
:108C300029FC94F845506DB2002D05DC12E06B1E46
:108C400013F0FF0F5DB20DD0636A304653B1FEF7EB
:108C500099F80028F3D0FEF727F96B1E13F0FF0FE9
:108C60005DB2F1D1FF2384F84530FEF715FCFEF725
:108C700009FC94F844506DB2002D15DD04F1100983
:108C800004E06B1E13F0FF0F5DB20DD02369484660
:108C900053B1FEF777F80028F3D0FEF705F96B1E05
:108CA00013F0FF0F5DB2F1D1FF2384F84430FEF7DB
:108CB000F3FBFDF72FFE002853D14FF08053C8F887
:108CC000043040BFBFF34F8FBFF36F8F49E0FEF713
:108CD000D9FB94F845506DB2002D05DC12E06B1EF7
:108CE00013F0FF0F5DB20DD0636A304653B1FEF74B
:108CF00049F80028F3D0FEF7D7F86B1E13F0FF0FEA
:108D00005DB2F1D1FF2384F84530FEF7C5FBFEF7D5
:108D1000B9FB94F844506DB2002D15DD04F1100933
:108D200004E06B1E13F0FF0F5DB20DD023694846BF
:108D300053B1FEF727F80028F3D0FEF7B5F86B1E05
:108D400013F0FF0F5DB2F1D1FF2384F84430FEF73A
:108D5000A3FBFDF7DFFDFEF795FBA36B53B1FEF719
:108D60009BFBFEF78FFBA56B002D54D1019B002BC5
:108D70007FF435AFFEF790FB002005B0BDE8F0832F
:108D8000FEF78AFBFEF77EFB94F845506DB2002D8E
:108D900005DC12E06B1E13F0FF0F5DB20DD0636AAD
:108DA000304653B1FDF7EEFF0028F3D0FEF77CF814
:108DB0006B1E13F0FF0F5DB2F1D1FF2384F8453035
:108DC000FEF76AFBFEF75EFB94F844506DB2002D8F
:108DD00015DD04F1100904E06B1E13F0FF0F5DB206
:108DE0000DD02369484653B1FDF7CCFF0028F3D0DE
:108DF000FEF75AF86B1E13F0FF0F5DB2F1D1FF239F
:108E000084F84430FEF748FBFDF784FDFEF73AFB9B
:108E1000A56B002DAAD0226C52B1E16863681144A1
:108E20009942E16024BF2168E160384600F0A4FB6C
:108E3000013DA56323692BB9FEF72EFB012005B088
:108E4000BDE8F08304F11000FDF79CFF0028F3D08B
:108E5000044B4FF080525A6040BFBFF34F8FBFF3B7
:108E60006F8FE9E700ED00E02DE9F043044685B09F
:108E700000F124060191FEF705FBA36BDFF8DC820D
:108E80000027B946002B40F0D780019D002D00F04F
:108E9000418102ADB9F1000F00F0DE80FEF7FCFA6F
:108EA000FDF77EFCFEF7EEFA94F84430FF2B04BF8A
:108EB000002384F8443094F84530FF2B04BF00238E
:108EC00084F84530FEF7E8FA284601A9FDF7B8FF17
:108ED00000285FD1FEF7D6FAA36B002B40F0C880C4
:108EE000FEF7DAFA2368002B00F01B810199304667
:108EF000FDF7CCFEFEF7C6FA94F845506DB2002D92
:108F000005DC12E06B1E13F0FF0F5DB20DD0636A3B
:108F1000304653B1FDF736FF0028F3D0FDF7C4FF0C
:108F20006B1E13F0FF0F5DB2F1D1FF2384F84530C3
:108F3000FEF7B2FAFEF7A6FA94F844506DB2002D8F
:108F400015DD04F1100904E06B1E13F0FF0F5DB294
:108F50000DD02369484653B1FDF714FF0028F3D024
:108F6000FDF7A2FF6B1E13F0FF0F5DB2F1D1FF23DF
:108F700084F84430FEF790FAFDF7CCFC002853D17A
:108F80004FF08053C8F8043040BFBFF34F8FBFF39A
:108F90006F8F49E0FEF776FA94F845506DB2002DD8
:108FA00005DC12E06B1E13F0FF0F5DB20DD0636A9B
:108FB000304653B1FDF7E6FE0028F3D0FDF774FF0D
:108FC0006B1E13F0FF0F5DB2F1D1FF2384F8453023
:108FD000FEF762FAFEF756FA94F844506DB2002D8F
:108FE00015DD04F1100904E06B1E13F0FF0F5DB2F4
:108FF0000DD02369484653B1FDF7C4FE0028F3D0D5
:10900000FDF752FF6B1E13F0FF0F5DB2F1D1FF238E
:1090100084F84430FEF740FAFDF77CFCFEF732FAA4
:10902000A36BEBB1FEF738FAFEF72CFAA36B4FF007
:109030000109002B3FF429AF2268013BA363002AFA
:1090400000F088802369002B74D1FEF725FA0127F0
:10905000384605B0BDE8F0832846FDF7E5FE1DE77C
:10906000FEF71AFA002F4AD1384605B0BDE8F08362
:10907000FEF712FAFEF706FA94F845506DB2002D8D
:1090800005DC12E06B1E13F0FF0F5DB20DD0636ABA
:10909000304653B1FDF776FE0028F3D0FDF704FF0C
:1090A0006B1E13F0FF0F5DB2F1D1FF2384F8453042
:1090B000FEF7F2F9FEF7E6F994F844506DB2002D90
:1090C00015DD04F1100904E06B1E13F0FF0F5DB213
:1090D0000DD02369484653B1FDF754FE0028F3D064
:1090E000FDF7E2FE6B1E13F0FF0F5DB2F1D1FF231F
:1090F00084F84430FEF7D0F9FDF70CFC94E7FEF756
:10910000C1F9616A19B1236B1968C1F10501606881
:10911000FDF778FFFEF7C0F90027384605B0BDE837
:10912000F083FEF7AFF96068FDF7F6FE0746FEF73D
:10913000B3F9DBE604F11000FDF724FE002884D02B
:10914000064B4FF080525A6040BFBFF34F8FBFF3C2
:109150006F8F7AE7FDF790FF606073E700ED00E046
:10916000104B5A68904208D0DA68904208BF01223A
:1091700004D090F8463093B170470022002110B41B
:1091800003EBC20443F8321090F84630616013B12B
:109190005DF8044B70475DF8044BFFF771BAFFF7B9
:1091A0006FBA00BFF4420020074B1A681AB19A68E0
:1091B00002B17047012210B403EBC20443F832102D
:1091C00060605DF8044B7047F442002070B50446BF
:1091D0000E461546FEF756F994F84430FF2B04BFAF
:1091E000002384F8443094F84530FF2B04BF00235B
:1091F00084F84530FEF750F9A36B002B45D0FEF7FD
:1092000041F994F845506DB2002D15DD04F12406A6
:1092100004E06B1E13F0FF0F5DB20DD0636A3046A1
:1092200053B1FDF7AFFD0028F3D0FDF73DFE6B1EF7
:1092300013F0FF0F5DB2F1D1FF2384F84530FEF744
:109240002BF9FEF71FF994F844506DB2002D15DD8F
:1092500004F1100604E06B1E13F0FF0F5DB20DD099
:109260002369304653B1FDF78DFD0028F3D0FDF79B
:109270001BFE6B1E13F0FF0F5DB2F1D1FF2384F8CC
:109280004430BDE87040FEF707B92A46314604F184
:109290002400FDF737FDB2E72DE9F0412C4EDFF851
:1092A000B8802C4F84B030684FF0FF3203A9FFF72D
:1092B0007FFC0028F7D0039C237A6568052B39D8FA
:1092C000DFE803F02F2C28231D03D4E90523D4E97C
:1092D0000301E4690094A847039C25683DB1FDF7AC
:1092E0000BFE0128284621D0FFF7CAF9039CFDF7A1
:1092F00003FE0128204616D0FFF7C2F9D3E7D4E9D0
:109300000523D4E90301A847E6E7D4E90412E0689D
:10931000A847E1E7D4E90301A847DDE7E068A847EB
:10932000DAE7A847D8E700F01FF9BCE700F01CF91E
:10933000039CDCE742224146384600F047FE072006
:10934000FFF72AF900F042FE0A2000F057FEC3E7BB
:10935000A042002074DE0200A0DE020070B54023AF
:109360000B4D82B004460022184604212B60FFF703
:10937000C5F9084D084B019306460223009307499F
:109380002E60A2B200230648FDF72CF902B070BD92
:109390009C420020A0420020A442002094DE020053
:1093A0009992020002887AB14368013A92B203F1BD
:1093B000080000EBC20002E00833834204D01A68C0
:1093C0008A42F9D158687047002070471A4B1978C3
:1093D00009BB70B54FF4405382B01B78102B1CD9D9
:1093E00043F21002142B126823D943F21401134BD9
:1093F0000C68134D1348A3FB04139B0CA5FB0461DD
:1094000000FB134089094FF47A76A5FB005006FB58
:109410001141800904E00848704708460B460A4697
:10942000CDE900010849044800F084FE024802B07A
:1094300070BD08460B46F3E7A842002083DE1B43BD
:10944000D34D621040420F00B8DE020008B5074855
:1094500003780BB1054808BD4FF0805304495A6E9C
:109460001B6E00F067FE014808BD00BFC842002027
:10947000CCDE020010B540220021044600F08AF83C
:109480000023C4E91033204610BD00BF10B4D0E95A
:109490001024531C03F03F039C4218BF81545DF815
:1094A000044B18BF036470470023C0E910337047B2
:1094B000D0E91023934206D05A1CC35C02F03F024D
:1094C0004264184670474FF0FF307047D0E91030C3
:1094D000181A48BF40307047D0E91023934214BF98
:1094E000C05C4FF0FF30704708B5074B044613B11E
:1094F0000021AFF30080054B1868836A03B19847D9
:10950000204603F0E9FB00BF00000000D8DE0200A7
:1095100070B50D4D0D4C641BA4100026A64209D158
:109520000B4D0C4C03F0DAFB641BA4100026A64282
:1095300005D170BD55F8043B98470136EEE755F864
:10954000043B98470136F2E7EC370020EC37002067
:10955000EC370020F8370020024B0146186800F075
:1095600071B800BF1C360020024B0146186800F09D
:1095700019B800BF1C3600200A44914200F1FF33A5
:1095800000D1704710B511F8014B03F8014F91421B
:10959000F9D110BD02440346934200D1704703F84D
:1095A000011BF9E737B5002948D051F8043C019078
:1095B000002BA1F10404B8BFE41801F089FF204A90
:1095C00001981368154633B96360146003B0BDE8B1
:1095D000304001F083BFA3420BD921686218934247
:1095E00004BF1A685B68636004BF521822602C6075
:1095F000ECE71A465B680BB1A342FAD9116855181B
:10960000A5420BD1246821445418A3421160DDD136
:109610001C685B68536021441160D7E702D90C23B2
:109620000360D3E7256861198B4204BF19685B6842
:10963000636004BF491921605460C7E703B030BDBF
:10964000DC420020F8B5CD1C25F0030508350C2DB3
:1096500038BF0C25002D064601DBA94203D90C2397
:1096600033600020F8BD01F033FF21490A68144639
:109670009CB9204F3B6823B92146304600F04AFD93
:1096800038602946304600F045FD431C23D10C23A9
:109690003360304601F022FFE3E723685B1B17D4F9
:1096A0000B2B03D923601C44256004E06368A242AD
:1096B0000CBF0B605360304601F010FF04F10B004B
:1096C000231D20F00700C21ACCD01B1AA350C9E7F3
:1096D00022466468CCE7C41C24F00304A042E3D013
:1096E000211A304600F016FD0130DDD1CFE700BF72
:1096F000DC420020E04200202DE9FF4755EC104BF2
:10970000002D0E4619462B46BBBF05F100431D46F2
:1097100000232D230B700D9BDDF830A0914623F024
:109720002008BCBF22461446B8F1460F05D0B8F158
:10973000450F00D10136022100E0032103AB019364
:1097400002AB009345EC104B5346324600F068FEE6
:10975000B8F1470F074602D119F0010F22D0B8F136
:10976000460F07EB060910D13B78302B0AD10022B7
:1097700000232046294603F009FA18B9C6F101066C
:10978000CAF80060DAF8003099440022002320462D
:10979000294603F0FBF908B1CDF80C903022039B69
:1097A0004B4507D3039B0E9ADB1B3846136004B06E
:1097B000BDE8F087591C03911A70F0E7F7B503462E
:1097C0000029B8BF494203F8022BB4BF2D222B2237
:1097D000092942702ADD0DF10704A4460A27A6468E
:1097E0000A4691FBF7F607FB16153035632A04F19C
:1097F000FF340EF8015C3146F1DC3031AEF1020588
:1098000004F8011C441C294661450AD30DF10902E4
:10981000A2EB0E02654588BF00221344181A03B05C
:10982000F0BD11F8012B04F8012FEDE730233031A2
:109830008370C170031DF1E72DE9F04F2DED028B10
:109840008DB00C46DDF8608016461F46054601F0D7
:109850007DFDD0F800A0504600F08CFC00230A9358
:1098600023680593D8F8003094F818B0073323F034
:10987000070303F10802C8F80020D3E90023C4E974
:109880001223D4E9128929F000430793CDF81880F8
:1098900008EE100A9F4BDDE906014FF0FF3203F09E
:1098A000A7F988BBDDE906019A4B4FF0FF3203F0C0
:1098B00081F948BB002200234046494603F070F975
:1098C00010B12D2384F84330934B9448BBF1470FDC
:1098D00094BF9846804603232361059B23F004022E
:1098E00022604FF00009009733460BAA2146284614
:1098F00000F0D8F9013040F090804FF0FF300DB00B
:10990000BDEC028BBDE8F08F42464B4640464946CF
:1099100003F06EF940B14B46002BBCBF2D2384F8F9
:1099200043307F487F4BD1E763680BF0DF0206923C
:109930005A1C3FD106236360059B616843F4806233
:10994000002303930AABCDE901B309AB49EC108BBB
:10995000009322600DF123032846FFF7CDFE069BFE
:109960000999472B804608D1C81C02DB63689942DD
:1099700041DDABF1020B5FFA8BFBBBF1650F20D829
:1099800001395A4604F150000991FFF717FF0A9A6E
:109990001318012A8146236102DC2268D20701D50F
:1099A000013323619DF82330002B9CD02D2384F8B4
:1099B000433098E7069A472ABED1002BBCD1012339
:1099C000B9E7BBF1660F18D1002963680BDD21618F
:1099D00013B92268D00702D501330B442361A16576
:1099E0004FF00009DEE713B92268D20701D5023330
:1099F000F4E70123F2E74FF0670B0A9B994205DB7E
:109A000023682161D807EAD54B1CE7E70029D4BFBA
:109A1000C1F1020201221344E0E723685A0507D48A
:109A20002369424631462846B84701302CD164E7C5
:109A3000BBF1650F40F2E080D4E91201002200235F
:109A400003F0A4F8002834D0374A012331462846D1
:109A5000B84701303FF451AFDDE909239A4202DBF8
:109A60002368D80710D518EE103A524631462846DA
:109A7000B84701303FF441AF4FF0000804F11A0934
:109A80000A9B013B434509DC23689B0700F10581E4
:109A9000E0680B9B9842B8BF184630E701234A465E
:109AA00031462846B84701303FF427AF08F1010896
:109AB000E6E7099B002B39DC1B4A01233146284687
:109AC000B84701303FF419AFDDE90923134302D150
:109AD0002368D907D8D518EE103A524631462846A1
:109AE000B84701303FF409AF4FF0000904F11A0AFA
:109AF000099B5B424B4501DC0A9B92E701235246DE
:109B000031462846B84701303FF4F7AE09F1010964
:109B1000EEE700BFFFFFEF7FDCDE0200E0DE0200C9
:109B2000E8DE0200E4DE0200ECDE02000A9AA36D29
:109B30009A42A8BF1A46002A914637DC4FF0000B24
:109B400029EAE97904F11A02A36D0593A3EB09034D
:109B50005B4533DCDDE909239A423BDB2368DA0706
:109B600038D40A9A059B0999D31AA2EB01099945A1
:109B7000A8BF9946B9F1000F35DC4FF0000829EA7B
:109B8000E97904F11A0ADDE909239B1AA3EB090319
:109B900043457FF779AF0123524631462846B847FF
:109BA00001303FF4AAAE08F10108ECE71346314654
:109BB00042462846B8470130C0D19EE601233146CF
:109BC00028460592B84701303FF497AE059A0BF14D
:109BD000010BB9E718EE103A524631462846B8470D
:109BE0000130BED189E6059A4B46424431462846AB
:109BF000B8470130C1D180E60A9A012A01DCDB07AF
:109C000038D50123424631462846B84701303FF453
:109C100074AE18EE103A524631462846B847013025
:109C20003FF46BAED4E912010022002302F0AEFF34
:109C3000D8B90A9B08F10102013B31462846B847D2
:109C400001300ED159E60123524631462846B84725
:109C500001303FF452AE08F101080A9B013B434535
:109C6000F1DC4B4604F15002DCE64FF0000804F151
:109C70001A0AF2E701234246DFE701234A4631464A
:109C80002846B84701303FF438AE08F10108E368D0
:109C90000B995B1A4345F0DCFAE64FF0000804F13B
:109CA0001909F4E72DE9F047164699468A680B69C9
:109CB000DDF820809342B8BF1346336091F843200B
:109CC00007460C460AB1013333602368990642BF48
:109CD000336802333360256815F0060506D104F1B8
:109CE000190AE36832689B1AAB4226DC94F84320D9
:109CF000131E226818BF012392062BD404F14302DD
:109D000049463846C04701301ED02368E5683268AE
:109D100003F00603042B08BFAD1AA36822690CBF29
:109D200025EAE57500259342C4BF9B1AED1800266D
:109D30001A34B5421AD1002008E0012352464946A0
:109D40003846C047013003D14FF0FF30BDE8F087FF
:109D50000135C6E7E1185A1C302081F8430022443F
:109D600094F8451082F843100233C7E701232246D6
:109D700049463846C0470130E6D00136D9E70000F1
:109D80002DE9FF470C469146277E0C99782F804697
:109D90009A4604F1430207D8622F0AD8002F00F038
:109DA000D880582F00F0A38004F1420684F8427056
:109DB0003AE0A7F16303152BF6D801A050F823F081
:109DC000199E02002D9E0200A99D0200A99D02007D
:109DD000A99D0200A99D02002D9E0200A99D0200DE
:109DE000A99D0200A99D0200A99D0200399F0200C1
:109DF0005D9E02001B9F0200A99D0200A99D02001A
:109E00005B9F0200A99D02005D9E0200A99D0200C9
:109E1000A99D0200239F02000B681A1D1B680A609F
:109E200004F1420684F842300123A3E02568086863
:109E30002E0600F104030AD505680B60002D03DA35
:109E40002D236D4284F843305E480A2319E015F053
:109E5000400F05680B6018BF2DB2EFE70B6825684F
:109E6000181D0860280601D51D6802E06906FBD5AB
:109E70001D8854486F2F0CBF08230A23002184F843
:109E800043106668A660002EA2BF216821F004017D
:109E900021600DB9002E4DD01646B5FBF3F103FB42
:109EA0001157C75D06F8017D2F46BB420D46F4D918
:109EB000082B0BD12368DF0708D523696168994215
:109EC000DEBF302306F8013C06F1FF36921B22610B
:109ED000CDF800A04B4603AA21464046FFF7E2FE1C
:109EE00001304CD14FF0FF3004B0BDE8F087354869
:109EF00084F8457023680E681F0656F8045B0E60F0
:109F000014D5D90744BF43F0200323601DB923684B
:109F100023F0200323601023B0E7236843F02003DD
:109F200023607823284884F84530E3E75E0648BF7D
:109F3000ADB2E6E71646BBE70B68266860691D1DF3
:109F40000D6035061B6801D5186002E07106FBD56F
:109F50001880002323611646BAE70B681A1D0A60B1
:109F60001E6862680021304601F062FA08B1801B69
:109F7000606063682361002384F84330A8E72369A5
:109F8000324649464046D0470130ABD023689B0754
:109F900013D4E068039B9842B8BF1846A4E7012396
:109FA000324649464046D04701309BD00135E368F0
:109FB00003995B1AAB42F2DCEBE7002504F11906CA
:109FC000F5E700BFEEDE0200FFDE02000FB40A4B31
:109FD00013B51C6824B1A36913B9204601F018F920
:109FE00005AB049AA1680193204601F01FFF02B05F
:109FF000BDE8104004B070471C360020094B13B573
:10A000001C68014634B1A36923B90190204601F0D0
:10A01000FFF80199A268204602B0BDE8104002F0A6
:10A0200035B800BF1C36002070B50E46054618B185
:10A0300083690BB901F0ECF8AB69AC6813B9284639
:10A0400001F0E6F82C4B9C4220D16C68636EDB0774
:10A0500005D4A389980502D4A06D01F07CF9A389E9
:10A0600019071DD52369DBB1013EA36816F8011F4E
:10A07000013BA36039BB002B38DA22460A2128466F
:10A0800000F080F8013011D00A2511E01B4B9C42F2
:10A0900001D1AC68DAE71A4B9C4208BFEC68D5E7FF
:10A0A0002146284600F0C0F80028DDD04FF0FF35EB
:10A0B000636EDA0705D4A3899B0502D4A06D01F075
:10A0C0004BF9284670BD002B04DAA2699A4206DCDF
:10A0D0000A2904D023685A1C22601970C5E7224659
:10A0E000284600F04FF80130BFD1DFE723680A258A
:10A0F0005A1C22601D70DBE740E0020060E00200B5
:10A1000020E00200024B01461868FFF78DBF00BF38
:10A110001C36002038B5064D0023044608462B6047
:10A1200002F0CCFD431C02D12B6803B1236038BD83
:10A13000104300200EB400B59CB01DAB02900690F9
:10A140006FF00041094807910491094953F8042B25
:10A1500005910068019302A901F03EFD029B0022D7
:10A160001A701CB05DF804EB03B070471C36002079
:10A170000802FFFF034613F8012B002AFBD1181A2F
:10A1800001387047F8B50E461446054618B1836984
:10A190000BB901F03DF8214B9C422BD16C68A369AF
:10A1A000A360A3891A072FD523696BB3236920689D
:10A1B000C01A6369F6B28342374604DC214628465A
:10A1C00000F092FF30BBA368013BA36023685A1CD8
:10A1D00022601E7063690130834204D0A389DB07CB
:10A1E00006D50A2E04D12146284600F07DFF88B905
:10A1F0003846F8BD0A4B9C4201D1AC68CFE7094B09
:10A200009C4208BFEC68CAE72146284600F00CF8DB
:10A210000028CBD04FF0FF37EAE700BF40E0020054
:10A2200060E0020020E00200324B70B51D68064677
:10A230000C4625B1AB6913B9284600F0E9FF2E4B57
:10A240009C420FD16C68A389B4F90C2019072CD457
:10A25000DD0611D40923336042F04003A3814FF09F
:10A26000FF303EE0254B9C4201D1AC68EBE7244B2C
:10A270009C4208BFEC68E6E7580712D5616B41B114
:10A2800004F14403994202D03046FFF78BF90023D2
:10A290006363A38923F02403A381002363602369FC
:10A2A0002360A38943F00803A38123694BB9A389E1
:10A2B00003F42073B3F5007F03D02146304601F04C
:10A2C00071F8A089B4F90C2010F001030AD0002322
:10A2D000A36063695B42A361236943B910F0800006
:10A2E000BAD170BD810758BF6369A360F4E700204D
:10A2F000F7E700BF1C36002040E0020060E00200EB
:10A3000020E002002DE9F74F03690C69A3420746DC
:10A31000C0F28180013C01F1140800F1140505EB45
:10A320008403019358F8243055F8242001339A42CD
:10A330004FEA840B08EB8409B2FBF3F631D34FF0FC
:10A34000000E4046AC46F24650F8042B93B206FB92
:10A3500003E34FEA134E9BB2AAEB0303120CDCF8A3
:10A3600000A006FB02E213FA8AF34FEA124E1FFA2C
:10A3700082FADCF80020CAEB124202EB23429BB2C5
:10A3800043EA024381454CF8043B4FEA224ADBD2C0
:10A3900055F80B302BB9019B043B9D421A462ED336
:10A3A0003C61384601F0CBFA002824DB0136284610
:10A3B0004FF0000C58F8042BD0F800E093B2ACEB4F
:10A3C0000303120C13FA8EF3C2EB1E4202EB23427C
:10A3D0009BB243EA0243C14540F8043B4FEA224C9A
:10A3E000E8D255F8242005EB840322B9043B9D42B2
:10A3F0001A460AD33C61304603B0BDE8F08F1268BC
:10A40000043B002ACCD1013CC7E71268043B002A78
:10A41000F0D1013CEBE70020EEE700000000000077
:10A420002DE9F04F2DED028B57EC106B95B0456A7E
:10A43000DDF880800591CDE90267044609920F930B
:10A440003DB91020FFF788F8C0E90155606205604A
:10A45000C560636A196851B15A684A600123934024
:10A460008B60204601F074F8636A00221A603B1E7C
:10A47000B9BF23F0004303930023C8F80030DDF890
:10A480000C90B74BBCBF0122C8F8002033EA090387
:10A490001BD10F9A42F20F731360C9F313033343B6
:10A4A00000F07585219B63B9AE4B25E0AE4B009360
:10A4B0000833219A1360009815B0BDEC028BBDE8FB
:10A4C000F08FA84B00930333F3E79DED027B00224E
:10A4D00051EC170B00238DED0A7B02F057FB8046F1
:10A4E00060B10F9A01231360219B002B00F04C8573
:10A4F0009E4B219A1360013B0093DCE79DED0A0B14
:10A5000012AA13A9204601F0ACFAC9F30A558246F3
:10A51000002D7ED00B9BCDF84080C3F31303DDE903
:10A520000A6743F07F5747F44017A5F2FF35904B79
:10A5300000223046394601F009FF83A3D3E9002306
:10A5400002F0BCF882A3D3E9002301F001FF064624
:10A5500028460F4602F048F87FA3D3E9002302F013
:10A56000ADF802460B463046394601F0F1FE06468C
:10A570000F4602F053FB0022814600233046394645
:10A5800002F00EFB48B1484602F02EF832463B4638
:10A5900002F0FCFA08B909F1FF39B9F1160F56D8E3
:10A5A000744B03EBC903D3E90023DDE90A0102F090
:10A5B000F7FA00284DD009F1FF3900230E93129BC2
:10A5C0005D1B6B1E049343BF0023C5F10108049378
:10A5D0004FF00008B9F1000F3DDB049BCDF834903B
:10A5E0004B44049300230693059B092B00F29A80A9
:10A5F000052BC4BF043B0593059BA3F10203CCBF0D
:10A6000000250125032B00F29980DFE803F02C7D63
:10A610007B89DDE912531D4405F23243202BC1BF73
:10A62000C3F1400305F2124009FA03F326FA00F0E1
:10A63000DABFC3F1200306FA03F0184301F0C4FFA8
:10A6400001230646A1F1F877013D10936FE701233E
:10A65000B4E70E90B3E7C9F1000306930023A8EB1B
:10A6600009080D93C0E700230893099B002B00F312
:10A6700085804FF0010BCDF804B05B46CDF824B0D7
:10A68000666A00227260042202F114009842716826
:10A690007AD9204600F028FF636A30601B68009377
:10A6A000019B0E2B00F2F580002D00F0F280B9F135
:10A6B000000F7DDD2F4A09F00F0302EBC30393ED7A
:10A6C000007B19F4807F4FEA2917B0EE478AF0EE3D
:10A6D000678A5DD0284BDDE90A01D3E9082302F03F
:10A6E00017F9CDE9020107F00F070325224E002FCD
:10A6F00050D1DDE9020153EC182B02F009F9CDE944
:10A7000002016FE00123AFE700230893099B09EBE7
:10A71000030B0BF10103012B0193B8BF0123AFE73A
:10A720000123F2E701250023059308954FF0FF3B35
:10A730000022CDF804B012230992A1E70123089367
:10A74000F4E700BFAFF3008061436F63A787D23F98
:10A75000B3C8608B288AC63FFB799F501344D33F10
:10A760000000F07F1AE0020011E00200EDDE0200BE
:10A770000000F83FA8E0020080E00200DDF824B00D
:10A78000CDF804B05B467BE70131716052007BE796
:10A790000225ABE7F90708D551EC180BD6E90023E1
:10A7A00001F08CFF41EC180B01357F1008369EE755
:10A7B00000F0AB80C9F10006AA4BAB4F06F00F02C8
:10A7C00003EBC203D3E90023DDE90A0101F076FFC0
:10A7D000CDE90201361100230225002E40F08A80C7
:10A7E000002B8CD10E9B002B00F09180DDE90267DD
:10A7F0009E4B00223046394602F0D2F9002800F084
:10A800008680019B002B00F08280BBF1000F3CDDB5
:10A8100009F1FF3307930022954B3046394601F08A
:10A820004DFFCDE902010135CDF830B0DDE9026719
:10A83000284601F0D9FE32463B4601F03FFF8D4BE2
:10A84000002201F085FDA1F15073CDE902010393CF
:10A850000C9B002B60D1884B00223046394601F01A
:10A8600075FDDDE9022306460F4602F0B7F9002820
:10A8700040F09982DDE90221304601F1004339467A
:10A8800002F08EF9002840F08B82DDE90A23CDE941
:10A890000223139B002BC0F25B81B9F10E0F00F372
:10A8A0005781704B03EBC90393ED007B099BB0EE1E
:10A8B000478AF0EE678A002B80F2E280019B002B32
:10A8C00000F3DE8040F06C826B4B51EC170B0022E2
:10A8D00001F0F4FEDDE9022302F076F9019E37462D
:10A8E000002840F04282009D312305F8013B09F128
:10A8F00001093EE2F20705D5D7E9002301F0DEFEAB
:10A90000013501237610083767E702256AE7019BC6
:10A91000CDF81C900C9389E700990C980C9A514B38
:10A920009DED027B014402910899B0EE478AF0EE5A
:10A93000678A03EBC20353E90223002945D04F493C
:10A94000002001F0E5FF53EC182B01F0FFFC009D07
:10A9500041EC180B3946304602F060F90C9001F0DA
:10A9600043FE02460B463046394601F0EFFC0C9B95
:10A97000303305F8013B53EC182B06460F4602F026
:10A980000FF9002865D132463B463849002001F0D6
:10A99000DDFC53EC182B02F003F9002840F0B880DE
:10A9A000029B9D423FF471AF314B51EC180B0022DA
:10A9B00001F084FE2E4B41EC180B00223046394644
:10A9C00001F07CFE06460F46C4E751EC170B01F080
:10A9D00075FE029B009D0C9341EC180B39463046E6
:10A9E00002F01CF9119001F0FFFD02460B463046C3
:10A9F000394601F0ABFC119B303305F8013B029B5B
:10AA00009D4206460F464FF0000225D11B4B51ECEC
:10AA1000180B01F09DFC02460B463046394602F009
:10AA2000DDF8002874D153EC182B1449002001F0F4
:10AA30008DFC02460B463046394602F0B1F800283C
:10AA40003FF423AF0C9D6B1E0C9315F8013C302B8B
:10AA5000F8D0DDF81C9049E0054B01F02FFE0646CA
:10AA60000F46BBE7A8E0020080E002000000F03FD4
:10AA70000000244000001C40000014400000E03FA3
:10AA8000DDE90267009D53EC182B3046394601F092
:10AA90003FFF02F0C3F8804601F0A6FD53EC182BEF
:10AAA00001F00CFE02460B463046394608F13006EE
:10AAB00001F04CFC05F8016B009E019FAE1BB742F4
:10AAC00002460B4637D101F043FC53EC182B0646E7
:10AAD0000F4602F083F8C8B953EC182B30463946BC
:10AAE00002F054F810B118F0010F0FD12046514672
:10AAF00000F02EFD00232B700F9B09F10100186060
:10AB0000219B002B3FF4D7AC1D60D4E4CDF81C9002
:10AB10002B461D4613F8012D392A08D1009A9A4276
:10AB2000F7D1079A00990132079230220A701A78F9
:10AB300001321A708DE79E4B002201F0BFFD00220A
:10AB4000002306460F4602F021F800289BD0CDE7EF
:10AB5000089A002A00F0C680059A012A00F3AA800C
:10AB6000109A002A00F0A28003F23343069E454665
:10AB7000049A01211A4420469844049200F08DFD65
:10AB80000746002D0BDD049B002B08DDAB42049A29
:10AB9000A8BF2B46A8EB0308ED1AD31A0493069B13
:10ABA000FBB1089B002B00F0A180002E11DD39467F
:10ABB0003246204600F016FE524601460746204621
:10ABC00000F074FD51460790204600F0C1FC079B41
:10ABD0009A46069B9A1B04D05146204600F002FE7E
:10ABE00082460121204600F058FD0D9B002B0646B1
:10ABF0007EDD1A460146204600F0F4FD059B012B40
:10AC0000064678DD00230693336906EB8303186953
:10AC100000F0F3FCC0F12000049B184410F01F006A
:10AC200000F08880C0F12003042B40F38180C0F144
:10AC30001C00049B0344804405440493B8F1000FB6
:10AC400005DD51464246204600F01AFE8246049B2E
:10AC5000002B05DD31461A46204600F011FE06465F
:10AC60000E9B002B68D03146504600F068FE00284D
:10AC700062DA002351460A22204600F080FC089B3D
:10AC800009F1FF398246002B00F088813946002304
:10AC90000A22204600F073FCBBF1000F074600F3C8
:10ACA0008F80059B022B40F38B804DE0129BC3F1FC
:10ACB00036035BE7019B5E1E069BB342BFBF069B4C
:10ACC0000696F21A0D9BB6BF9B189E1B0D93019B17
:10ACD000B8BF0026002BB5BFA8EB0305019B0023DE
:10ACE000454645E7069E089F45464AE7069A73E7AC
:10ACF000059B012B18DC029BB3B9039BC3F3130321
:10AD0000A3B9039B23F000431B0D1B052BB1049B30
:10AD10000133049308F10108012306930D9B002BD6
:10AD20007FF472AF012077E70023F6E7029BF4E798
:10AD300084D018461C307CE7019B002B3ADC059B35
:10AD4000022B37DDDDF804B0BBF1000F0DD1314629
:10AD50005B460522204600F012FC0146064650469E
:10AD600000F0EDFD00283FF7BEAD099B009D6FEAA6
:10AD700003094FF000083146204600F0E9FB002FA0
:10AD80003FF4B4AEB8F1000F05D0B84503D041464A
:10AD9000204600F0DDFB3946204600F0D9FBA5E651
:10ADA00000263746E1E70C9EDDF81C9037469AE511
:10ADB00000002440089BDDF804B0002B00F0F58073
:10ADC000002D05DD39462A46204600F059FD07468C
:10ADD000069B002B55D07968204600F085FB3A6928
:10ADE00002320546920007F10C010C30FEF7C4FB5D
:10ADF00001222946204600F043FD009B01330193C8
:10AE0000009B5B440793029B03F00103B846069343
:10AE10000746019B3146504603F1FF3BFFF772FAAC
:10AE200003463033029041465046089300F087FDB8
:10AE30003A4604903146204600F09DFDC268089BCA
:10AE4000054602BB0146504600F079FD089B0246CC
:10AE500029462046CDE9083200F07AFB059B099A85
:10AE6000019D43EA0201069B0B43089B0DD1392B40
:10AE700027D0049A002A01DD029B31338BF8003081
:10AE800079E73846B9E70122E2E70499002904DBB3
:10AE9000059801430698014320D1002AEEDD514672
:10AEA00001222046019300F0EBFC3146824600F07F
:10AEB00046FD0028019B02DCE0D1DA07DED5392B04
:10AEC000DAD139238BF800302B461D46013B15F8AB
:10AED000012C392A50D001321A704CE7002A03DDC8
:10AEE000392BEED00133C9E7019A079902F8013CEA
:10AEF0008A422AD0514600230A22204600F03FFB16
:10AF0000B84582464FF000034FF00A024146204602
:10AF100007D100F034FB80460746019B01330193C3
:10AF200077E700F02CFB3946804600230A222046B2
:10AF300000F025FB0746F0E7BBF1000F009ACCBFFD
:10AF40005D46012515444FF0000851460122204678
:10AF5000019300F095FC3146824600F0F0FC002899
:10AF6000B2DC02D1019BDB07AED42B461D4613F8A1
:10AF7000012D302AFAD0FEE6009A9A42A5D131235B
:10AF800009F101091370F6E6124BFFF7B5BA219BE0
:10AF9000002B7FF48BAA104BFFF7AEBABBF1000F6A
:10AFA00003DC059B022B3FF7CFAE009D3146504698
:10AFB000FFF7A8F900F1300305F8013B009AAA1A3F
:10AFC0009345B9DD514600230A22204600F0D7FA06
:10AFD0008246EBE7ECDE020011E002008A892DE9EF
:10AFE000F041054610070C4658D44B68002B05DC91
:10AFF0000B6C002B02DC0020BDE8F081E66A002E1D
:10B00000F9D0002312F480522F682B6032D0606D8B
:10B01000A3895A0705D56368C01A636B0BB1236C0B
:10B02000C01A00230246E66A216A2846B047431C3C
:10B03000A38906D129681D292CD82A4ACA40D607D7
:10B0400028D500226260D9042269226004D5421CFE
:10B0500001D12B6803B96065616B2F600029CAD0EC
:10B0600004F14403994202D02846FEF79BFA0020DF
:10B070006063C1E7216A01232846B047411CC7D15C
:10B080002B68002BC4D01D2B01D0162B01D12F60B3
:10B09000B1E7A38943F04003A381ADE70F69002F17
:10B0A000A9D093070E6808BF4B690F6018BF002333
:10B0B000A6EB07088B60B8F1000F9CDD216AA66A39
:10B0C00043463A462846B047002806DCA38943F0A9
:10B0D0004003A3814FF0FF308EE70744A8EB000840
:10B0E000E9E700BF0100402038B50B6905460C4672
:10B0F00013B90025284638BD18B183690BB900F093
:10B1000087F8144B9C421BD16C68B4F90C30002BAF
:10B11000EFD0626ED00704D4990502D4A06D00F080
:10B120001AF928462146FFF759FF636EDA070546EC
:10B13000E0D4A3899B05DDD4A06D00F00DF9D9E71B
:10B14000054B9C4201D1AC68DFE7044B9C4208BF31
:10B15000EC68DAE740E0020060E0020020E0020074
:10B16000002310B50446C0E90033C0E9043383600E
:10B1700081814366C2818361194608225C30FEF7F3
:10B1800009FA054B6362054BA362054BE362054B6D
:10B190002462236310BD00BF1DC102003FC1020035
:10B1A00077C102009BC10200014900F0AFB800BFA7
:10B1B000E9B0020070B54A1E682555430E4605F1F8
:10B1C0007401FEF73FFA044640B10021C0E90016C1
:10B1D0000C30A06005F16802FEF7DCF9204670BD76
:10B1E000014800F0B8B800BF0C430020014800F04F
:10B1F000B3B800BF0C430020014800F0ACB800BF5A
:10B2000007430020014800F0A7B800BF0743002013
:10B2100010B50446FFF7F0FFA3691BB1BDE810406D
:10B22000FFF7F0BFC4E912332365134B134A1B68C1
:10B23000A262A34204BF0123A361204600F020F8CC
:10B240006060204600F01CF8A060204600F018F86E
:10B250000022E06004216068FFF782FFA0680122FD
:10B260000921FFF77DFFE06802221221FFF778FF36
:10B270000123A361D2E700BFD8DE0200A9B102001A
:10B28000F8B50746FFF7ACFF1E4B1E68B36913B94C
:10B290003046FFF7BDFF4836D6E90134013B03D500
:10B2A00033680BB33668F7E7B4F90C50D5B9164BD1
:10B2B000E36004F15800656600F04CF8FFF796FF74
:10B2C000C4E90155C4E904552560A5610822294651
:10B2D00004F15C00FEF75EF9C4E90D55C4E91255AE
:10B2E0002046F8BD6834D9E704213846FFF762FFED
:10B2F000044630600028D5D1FFF778FF0C233B606F
:10B30000EEE700BFD8DE02000100FFFF2DE9F843A1
:10B310000646884600F148040027D4E90195B9F1B2
:10B32000010905D52468002CF7D13846BDE8F8831B
:10B33000AB89012B07D9B5F90E30013303D029466B
:10B340003046C04707436835E9E7000000487047CA
:10B350007037002070477047704770B50E46B1F9DE
:10B360000E10002996B014461D4607DA00232B6004
:10B37000B3891A0610D44FF480630EE06A4600F0D9
:10B3800033FF0028F2DB019A02F47042A2F5005369
:10B390005A425A412A60EEE740230020236016B04B
:10B3A00070BD00008B8973B59D0706460C4607D516
:10B3B00004F14703236023610123636102B070BD80
:10B3C00001AB6A46FFF7C9FF009905463046FEF714
:10B3D00039F948B9B4F90C309A05EFD423F00303D6
:10B3E00043F00203A381E3E70D4BB362A38920601E
:10B3F00043F08003A381009B6361019B20615BB1EB
:10B40000B4F90E10304600F001FF28B1A38923F0F3
:10B41000030343F00103A381A0890543A581CDE780
:10B42000A9B10200000000000000000000000000C0
:10B4300001F0FF01102A2BDB10F0070F08D010F8E5
:10B44000013B013A8B422DD010F0070F42B3F6D1E9
:10B45000F0B441EA012141EA014122F007047FF002
:10B4600000070023F0E80256083C85EA010586EA59
:10B47000010685FA47F5A3FA87F586FA47F6A5FA95
:10B4800087F68EB9EED1F0BC01F0FF0102F00702A1
:10B4900032B110F8013B013A83EA010313B1F8D14C
:10B4A0000020704701387047002D06BF354603382D
:10B4B000073815F0010F07D1013015F4807F02BF66
:10B4C000013015F4C03F0130F0BC0138704700BFB7
:10B4D0000148FFF740BF00BF084300200148FFF7C5
:10B4E0003BBF00BF0843002070B5466A04460D46C6
:10B4F0003EB91020FEF730F8C0E9016660620660D0
:10B50000C660666AF36883B1636ADB6853F8250036
:10B51000B8B9012101FA05F6721D9200204600F02B
:10B52000F0FA60B1C0E901560EE021220421204664
:10B5300000F0E7FA636AF060DB68002BE4D10020DA
:10B5400070BD026843F825200023C0E90333F7E704
:10B5500070B5466A05460C463EB91020FDF7FCFF63
:10B56000C0E9016668620660C6603CB16B6A6268E9
:10B57000DB6853F82210216043F8224070BD2DE9AA
:10B58000F0410E69074698460C4601F1140000236D
:10B590000568A9B202FB01814FEA114C2D0C02FB98
:10B5A00005C589B2013301EB05419E4240F8041BF9
:10B5B0004FEA1548ECDCB8F1000F1BD0A368B3428A
:10B5C00012DC616838460131FFF78EFF22690232D2
:10B5D00004F10C01054692000C30FDF7CDFF214629
:10B5E0003846FFF7B5FF2C4604EB86030136C3F857
:10B5F000148026612046BDE8F081030C1B04D3B9FA
:10B600000004102310F07F4F04BF0002083310F035
:10B61000704F04BF0001043310F0404F04BF80009E
:10B620000233002805DB10F0804F03F1010308BF4F
:10B630002023184670470023E4E7036813F007024D
:10B6400001460BD0DA0724D4980749BF5B089B0852
:10B6500001200B605CBF0B600220704798B2B0B94C
:10B660001B0C102013F0FF0F04BF1B0A08301A0731
:10B6700004BF1B0904309A0704BF9B080230DA0795
:10B6800003D45B0800F1010005D00B607047104641
:10B69000E8E7002070472020704710B50C460121D4
:10B6A000FFF722FF01224461026110BD2DE9F04F36
:10B6B00015460A692B699A42B8BF0B460C46BCBFB7
:10B6C0002C461D462769D5F81090A368616807EBE2
:10B6D0000906B342B8BF013185B0FFF705FF00F19D
:10B6E000140101EB86080B46002243451DD304F1EB
:10B6F000140305F1140203EB870702EB890302939D
:10B700003B1B153B23F00303043304F11505AF4243
:10B7100038BF04230193029B0392934208D8002E62
:10B720005ADC066105B0BDE8F08F43F8042BDCE776
:10B73000B2F800A0BAF1000F24D004F1140E89462B
:10B740004FF0000C5EF8045BD9F800B0ABB21FFA02
:10B750008BFB0AFB03B34FEA154BD9F80050634447
:10B760004FEA154C0AFB0BC505EB13459BB243EAA8
:10B770000543774549F8043B4FEA154CE2D8019B55
:10B7800041F803C0039BB3F802900432B9F1000FF3
:10B7900020D00B6804F1140C8E464FF0000ABCF860
:10B7A0000050BEF802B009FB05B5AA449BB243EABB
:10B7B0000A434EF8043B5CF8043BBEF800501B0CF7
:10B7C00009FB035303EB1A4367454FEA134AE6D8D4
:10B7D000019D4B5104319EE758F8043D002BA0D148
:10B7E000013E9CE72DE9F843154612F00302064698
:10B7F0000F4607D0214C013A002354F82220FFF7CE
:10B80000BEFE0746AD1035D0746A3CB91020FDF776
:10B81000A3FEC0E9014470620460C460D6F82480CD
:10B82000D8F808404CB940F271213046FFF735FF97
:10B830000023C8F80800044603604FF00009EB0736
:10B840000AD5394622463046FFF730FF3946804652
:10B850003046FFF77DFE47466D100BD0206838B9A3
:10B86000224621463046FFF721FF2060C0F80090B5
:10B870000446E4E73846BDE8F88300BF70E1020003
:10B880002DE9F0470C464968236903EB6218A36869
:10B89000074691464FEA621A08F10106B3423FDBC0
:10B8A0003846FFF721FE0023054600F1140100F1A0
:10B8B00010021846534536DB20692AEAEA7A04F179
:10B8C000140319F01F0901EB8A0103EB800C2ED041
:10B8D000C9F1200E8A460022186800FA09F00243D6
:10B8E0004AF8042B53F8042B9C4522FA0EF2F3D8A5
:10B8F000ACEB0403153B23F00303043304F1150000
:10B90000604588BF0423CA500AB108F10206013E0F
:10B9100038462E612146FFF71BFE2846BDE8F0871A
:10B9200001315B00BAE742F8040F0133C2E7043982
:10B9300053F8042B41F8042F9C45F9D8E7E730B5BC
:10B9400002690C69121B0ED100F11403143103EBD0
:10B95000840001EB840150F8045D51F8044DA542C8
:10B9600003D005D30122104630BD8342F3D3FAE75A
:10B970004FF0FF32F7E72DE9F84F0C460646114627
:10B9800020461746FFF7DBFF051E08D12946304643
:10B99000FFF7AAFD0123C0E90435BDE8F88FA4BF75
:10B9A0003B46274630467968A6BF1C460025012540
:10B9B000FFF79AFD3E69C560256907F1140104F19E
:10B9C000140900F1140E07F1100201EB860C09EBCB
:10B9D0008505F246002759F8043B52F804BF1FFAC8
:10B9E00083F817FA8BF71B0CA7EB0808C3EB1B4374
:10B9F00003EB28431FFA88F81F144D4548EA034318
:10BA00004AF8043BE7D82B1B153B23F00303043310
:10BA10001534A54238BF0423194473449E460D468D
:10BA200065450ED30CF10302521A22F003020339CA
:10BA30008C4538BF00221A4452F8043D7BB10661A0
:10BA4000ABE755F8048B17FA88F4221402EB18427E
:10BA5000A4B244EA02444EF8044B1714E0E7013E56
:10BA6000EAE72DE9F7438946012157EC106B904630
:10BA7000FFF73AFDC7F30A550446C7F3130335BB76
:10BA8000002E019328D068460096FFF7D6FD009956
:10BA900000B3019AC0F1200302FA03F30B43C24042
:10BAA00063610192019BA361002B14BF022201225A
:10BAB0002261D5B1A5F233450544C9F80050C0F163
:10BAC0003500C8F80000204603B0BDE8F08343F419
:10BAD0008013D5E76161E5E701A8FFF7AEFD019BA3
